:020000040800F2
:10000000C08F0120850200089B2A00088125000876
:10001000992A0008D70400081531000800000000E4
:10002000000000000000000000000000C501000802
:10003000D90400080000000021020008AD2C0008CF
:100040009F0200089F0200089F0200089F0200080C
:100050009F0200089F0200089F0200089F020008FC
:100060009F0200089F0200089F0200089F020008EC
:100070009F0200089F0200089F0200089F020008DC
:100080009F0200089F0200089F0200089F020008CC
:100090009F0200089F0200089F0200089F020008BC
:1000A0009F020008852D00089F0200089F0200089B
:1000B0009F0200089F0200089F0200089F0200089C
:1000C0009F0200089F0200089F0200089F0200088C
:1000D0009F0200089F0200089F02000809310008E3
:1000E0009F0200089F0200089F0200089F0200086C
:1000F0009F0200089F0200089F0200089F0200085C
:100100009F0200089F0200089F0200089F0200084B
:100110009F0200089F020008912D00089F0200081E
:100120009F0200089F0200089F0200089F0200082B
:100130009F020008750500089F0200089F02000842
:100140009F0200089F0200089F0200089F0200080B
:100150009F0200089F0200089F0200089F020008FB
:100160009F0200089F0200089F0200089F020008EB
:100170009F0200089F0200089F0200080000000084
:100180009F0200089F0200089F0200089F020008CB
:100190009F0200089F0200089F0200089F020008BB
:1001A0009F0200089F0200089F020008DFF810D09D
:1001B00000F054F900480047E16E0008AFF30080FA
:1001C000C08F01202C4B19680868B0E8F04F80F30D
:1001D0000988BFF36F8F4FF0000080F311887047DC
:1001E0000000000008480068006880F308884FF0AD
:1001F000000080F3148862B661B6BFF34F8FBFF37F
:100200006F8F00DF00BF00BF08ED00E0DFF80C00DB
:10021000016841F470010160704700BF88ED00E0A3
:10022000EFF30980BFF36F8F134B1A681EF0100FA6
:1002300008BF20ED108A20E9F04F106009B44FF09C
:10024000500080F31188BFF34F8FBFF36F8F10F012
:100250000FFF4FF0000080F3118809BC196808688F
:10026000B0E8F04F1EF0100F08BFB0EC108A80F31A
:100270000988BFF36F8F704724010020EFF30580DA
:10028000704700000648804706480047FEE7FEE743
:10029000FEE7FEE7FEE7FEE7FEE7FEE7FEE7FEE736
:1002A000752D0008AD0100082DE9F05F054600201E
:1002B00092469B4688460646814640241BE02846D7
:1002C00041464746224600F0B9F853465A46C01AFE
:1002D000914110D311461846224600F0A0F82D1A7D
:1002E00067EB01084F4622460120002100F097F8F5
:1002F00017EB00094E41201EA4F10104DFDC484643
:1003000031462A464346BDE8F09F0000004870474A
:10031000A02001080649074A0868504343F2390201
:1003200010440860400870470149086070470000A9
:10033000940100206D4EC64110B5431A934209D274
:100340008318881803E010F8011D03F8011D521EE0
:10035000F9D210BD40EA01039B0703D009E008C9A8
:10036000121F08C0042AFAD203E011F8013B00F87A
:10037000013B521EF9D210BDD2B201E000F8012BB0
:10038000491EFBD270470022F6E710B513460A4615
:1003900004461946FFF7F0FF204610BD421C10F836
:1003A000011B0029FBD1801A704730B5044600209C
:1003B000034600E05B1C934203D2E05CCD5C401B33
:1003C000F8D030BD034611F8012B00F8012B002AAC
:1003D000F9D11846704710B54843044606F09AFD17
:1003E000002805D00021002C02D0641E0155FAE738
:1003F00010BD30B50B46014600202022012409E043
:1004000021FA02F59D4205D303FA02F5491B04FACD
:1004100002F52844151EA2F10102F1DC30BD202AAC
:1004200004DB203A00FA02F1002070479140C2F14B
:10043000200320FA03F3194390407047202A04DB7D
:10044000203A21FA02F00021704721FA02F3D0404D
:10045000C2F120029140084319467047064C074DEF
:1004600006E0E06840F0010394E807009847103484
:10047000AC42F6D3FFF79EFE28220108482201086D
:1004800070B58C1810F8015B15F0070301D110F856
:10049000013B2A1106D110F8012B03E010F8016B83
:1004A00001F8016B5B1EF9D12B0705D40023521E06
:1004B0000DD401F8013BFAE710F8013BCB1A921C6E
:1004C00003E013F8015B01F8015B521EF9D5A1426C
:1004D000D8D3002070BDFEE770470000F0B50023C0
:1004E0001A464FF0004544F2F85600BF016903EB8D
:1004F000830401EBC4010A604A608A60CA600A6230
:100500000D604A624E604F6827F000474F6000EB75
:100510008307032BB96406D24FF0280C07690CEB54
:10052000C4043C4400E00469CC605B1C042BDDD3B4
:10053000C26502668266C26682650169006800F56E
:100540008050C160F0BD38B50446006800F58050A9
:10055000816941F480118161206800F580508069D3
:100560000090012000F0B4FA2068009900F5805056
:10057000816138BD014800F03DBB00009C4F002068
:1005800070B5A4B00024012506468DF828408DF8EA
:1005900004501494A8038DF8564005908DF810501F
:1005A00002948DF85440C0108DF811508DF81F4002
:1005B0008DF8204006908DF81E508DF80F4009945C
:1005C0008DF81C4012948DF84C408DF855406946CA
:1005D000304600F05DF98DF881508DF880408DF83F
:1005E000824028041B908DF8685080011F908DF880
:1005F00070508DF8885040128DF871501E941D90E7
:100600008DF87250239421948DF8895019A93046A1
:10061000199400F0DDF824B070BD0020704701F09F
:100620003FB8000010B5024800F082FD002010BD68
:100630009C4F002013460A4610B50146034800F0BF
:10064000CDFC002801D04FF0FF3010BD9C4F0020A2
:1006500013460A4610B50146034800F0CDFE0028B7
:1006600001D04FF0FF3010BD9C4F00202DE9F0432A
:10067000836A1830914650F823208D681C4617680D
:100680000026002F6FDB00EB83077F69C7BBD5F81F
:1006900000C00127C2F808C0D2F804C0D5F8048011
:1006A0006FF30C0C4CEA080CC2F804C091F800C0BF
:1006B0005FEACC7C09D0D2F800C0D1F814802CF4C9
:1006C000400C4CEA080CC2F800C091F800C05FEA88
:1006D0008C6C09D5D2F800C0D1F810802CF0406C99
:1006E0004CEA080CC2F800C00978490703D5116824
:1006F00041F080011160116841F08051116042E0C9
:1007000031E0116821F0005111601168B9F1000F5A
:1007100002D041F0804101E021F0804111605B1C7A
:10072000042B00D31B1F50F82320116821F08051A7
:1007300011601168002903DB00EB83014969A9B14D
:1007400050F8242000210CE0BFF35F8F136823F0E2
:1007500000431360641C042C00D3241F491C50F870
:100760002420B942F0D30220BDE8F083AD682968A7
:1007700091605168D5F804C06FF30C0141EA0C0197
:100780005160761C7F1CBFF35F8F116841F0004100
:100790001160A9680029B4D11168B9F1000F02D025
:1007A00041F0804101E021F080411160116841F089
:1007B0000051116000EB8302416A5161036172B61E
:1007C000761C816A3144816262B60020CCE7000069
:1007D00070B50C460168054601F5805188692B4AC1
:1007E0001040227BEAB30022637B920642EA436216
:1007F000637FBBB35FF0000342EA0352A37B42EA8C
:10080000435263691A43237F42EAC312A37F42EA39
:100810008312236A1A4394F8243042EA8302024383
:100820008A61286800F580508669012000F050F93F
:10083000286800F580508661A169A0682279084384
:10084000216941EA4261084394F8251040EAC11049
:10085000A16A40EA81002168084340F40001286849
:1008600001E00FE010E000F580500160286800F51D
:1008700080500468012000F02BF9286800F58050B2
:10088000046070BD0122AFE70123B5E7233FDEF826
:1008900070B5026805460C4610683A49237C08404A
:1008A000A168002B63D0002341EAC351637C002B75
:1008B0005FD00023E67F9B0543EA06431943636943
:1008C0001943A37FF3B3002341EA4331237F41EA75
:1008D0000331A3691943237941EA832194F8203035
:1008E0008BB3002341EA4321E37B41EAC311636AEE
:1008F000194394F8283041EA031101431160286834
:100900000668012000F0E4F8286806602A6890690B
:100910004FF641710840A36C216D41EA034194F800
:100920004C3063B3002394F85560DB01012E00D0F6
:10093000002643EAC603194394F85630012B00D031
:10094000002301E017E018E041EA830194F85430F5
:10095000012B00D0002341EA430101439161286843
:100960008469012000F0B4F82868846170BD012317
:100970009AE701239EE70123A6E70123B2E70123BB
:10098000D1E700000F8120FF2DE9F8434FF0000967
:10099000CDF80090856E044600EB85004FF001080D
:1009A000866CE76E1EE0306A30B9684600F074FB72
:1009B000009838B33062B060B8F1000F12D0A06D6B
:1009C00018B344F2F8507060BFF35F8F306840F0A6
:1009D000004030606D1C042D00D32D1F04EB8500FA
:1009E0007F1E866C17B1B8F1000FDCD1E06EB84203
:1009F00006D0206800F58050C0F80890C4E91A5766
:100A0000BDE8F8834FF00008ECE70148DBE70000A1
:100A1000F845008072B6FEE72DE9F0410446876D87
:100A200000F03EFE064694F835000025022806D068
:100A30008020606584F834500120BDE8F081206892
:100A4000016821F0160101602068416921F08001F0
:100A50004161206C08B9A06C20B12068016821F0C8
:100A6000080101602068016821F0010101600CE0CB
:100A700000F016FE801B052807D9202060650320A2
:100A800084F8350084F83450D7E720680068C00740
:100A9000EED194F85C103F208840B860012084F8C3
:100AA000350084F834500020C7E790F8351002294B
:100AB00003D08021416501207047052180F8351061
:100AC0000068016821F0010101600020704700000A
:100AD00070B5044600F0E4FD0546601C02D00448F1
:100AE0000078044400F0DCFD401BA042FAD370BD46
:100AF0001000002010B500F00BF8000605D50348E3
:100B00004068BDE8104007F0C9BF10BD20000020BC
:100B1000D0F88C00704700296AD002681268C2F3CE
:100B2000001281F828200268126802F060024A620E
:100B30000268126842F34022521C81F820200268A9
:100B40001268C2F30042CA770268126842F3403268
:100B5000521C8A7702681268C2F300320A77026870
:100B6000126802F400628A610268126802F480422C
:100B70004A610268126842F38052521C4A74026849
:100B8000126842F3C052521C0A7402681268C2F31F
:100B9000C012CA730268126802F460228A60026896
:100BA0001268C2F380220A7102689269C2F340029D
:100BB00081F854200268926942F3C012521C81F8F5
:100BC0004C200268926902F030020A65026892695C
:100BD000120C8A6402689269C2F3800281F856207E
:100BE00000688069C0F3C00081F85500002070479C
:100BF0000120704710B50446006800F58050416937
:100C0000490607D5C169490604D52B4941612046EB
:100C100000F066FA206800F580504169C90708D0E5
:100C2000C169C90705D04FF001114161204600F0AC
:100C3000D9FB206800F580504169090422D5C169BB
:100C400009041FD5D4F8881041F00801C4F88810B1
:100C5000416989040CD54169184A1140C4F88C10C7
:100C6000C16921F4C031C161E020C4F8840006E00C
:100C7000426948F280610A40C4F88C2041612046F4
:100C8000FFF738FF2068816B09070AD5C06A00F0BA
:100C90006000C4F89400204600F028F90020C4F851
:100CA000940007480168090305D54FF4002101604D
:100CB000204600F09FFB10BD4000010000207E0098
:100CC000143C0140F8B5040003D0D4F8840010B1FE
:100CD00007E00120F8BD2320C4F88400204600F07E
:100CE0007DF83B480025016841F4804101600068BF
:100CF00000F4804000903748016821F40001016051
:100D00000168A268114301600068206800F5805006
:100D1000016841F00101016000F0C2FC06464FF499
:100D2000FA770BE000F0BCFC801BB84206D9042027
:100D3000C4F88800E020C4F88400CAE7206800F501
:100D400080500068C007EDD12046FFF719FC002154
:100D5000E06801EB810200EBC20005604560856040
:100D6000C56004EB81039861036843F4801303605A
:100D7000032905D22826E36806EBC2021A4400E0E4
:100D8000E268C260026842F440020260491C042921
:100D9000DED3A5622068E16800F58050016120463D
:100DA000FFF79CFB60680C4A818811640178C37866
:100DB00041EA0361837840781B0443EA0020014341
:100DC0005164C4F888501020C4F884000020F8BD95
:100DD000443802400438014000800240F0B587B03A
:100DE000044614216846FFF7CEFA3A492068884243
:100DF0006DD139480024016841F00071016001683B
:100E000001F000710591016841F0806101600168A5
:100E100001F080610591016841F0006101600168A5
:100E200001F000610591016841F004010160016871
:100E300001F004010591016841F0010101600168C0
:100E400001F001010591016841F0020101600168B2
:100E500001F002010591016841F040010160006864
:100E6000022500F0400005903220CDE9000502AADD
:100E700003260B2782E8D0006946184800F0E8FAFC
:100E80008620CDE9000502AA694682E8D000144810
:100E900000F0DEFA2803CDE9000502AA694682E8DF
:100EA000D000104800F0D4FA4FF42050CDE90005EE
:100EB00002AA694682E8D0000B4800F0C9FA002275
:100EC00005213D2000F084FC3D2000F073FC07B0BC
:100ED000F0BD0000008002403038024000080240AF
:100EE00000000240000402400018024070472DE953
:100EF000F84F4FF000075FEA01090446B84604D0F6
:100F0000D4F8840023285ED105E054F8880F40F01F
:100F10000100206057E0E66D4FF0000B04EB860007
:100F2000856CE06EC0F1040A3AE02868C00503D57C
:100F3000A869A067E86960672868800501D4E06F48
:100F400030B32868800503D5C4F860B0C4F864B035
:100F5000606900902868C00508D52868C0F30D4076
:100F6000001F009028684FF001082067AA682A62D5
:100F7000009804F1800183B2081F00F0B7F8206EDA
:100F8000401C2066616E009808446066C5F820B079
:100F9000761C042E00D3361F04EB86007F1C856C64
:100FA0002868002804DB574502D2B8F1000FBCD0F6
:100FB000E06EC019E06602D02046FFF7E5FCE6656A
:100FC000B8F1010F02D00120BDE8F88FE16FC9F838
:100FD00000100020C4F87CB0F6E700002DE9F041D5
:100FE000984603680546186900F01C044FF6FF7028
:100FF00000EAC1204FF4F861204301EA8211014365
:1010000021F0020040F001041C6100F049FB06469B
:101010004FF480370AE000BF00F042FB801BB8426B
:1010200002D30120BDE8F08128680469E007F3D10C
:101030002868406981B20020C8F80010F2E700007B
:101040002DE9F04700F118058046D5E90A6401272B
:1010500018E000BF05EB8409761ED9F81400B8B17A
:10106000D8F80C1004EB840251F8321000290CDB84
:1010700000F0BEF90021641C04F00304C9F8141048
:10108000C5E90A640EB1002FE4D10020BDE8F08765
:10109000641C04F00304F5E71CB504460D4806F093
:1010A000E1FB03000FD003F1200020600A48186123
:1010B0004FF4C0612068CDE90001002141220846BB
:1010C00007F05AFF1CBD0549012008700020206070
:1010D0001CBD00003C1E0108ED950008200000200A
:1010E0000148406807F0DABC2000002010B5002459
:1010F00042F8204D1481538104681CB10C682260B1
:101100000A6004E00260FBE701891944018100687C
:101110000028F9D110BD10B519B1D0F88420102ADB
:1011200001D0012010BDFFF7B3FB002010BD00006F
:1011300070B505460068006920F01C0400F06CFCE6
:101140001049114A0144914202D244F0080416E0C9
:101150000E490F4A0144914202D244F00C040EE0C1
:101160000C490D4A0144914209D30C4908440C49E9
:10117000884202D244F0040401E044F010042868DC
:10118000046170BD00D3CEFEC0E1E40040F1E9FD92
:1011900040787D0100796CFC005A6202001F0AFA57
:1011A00080F0FA0270B50446D0F88400102801D00F
:1011B000012070BD2325C4F884500420E066204639
:1011C000FFF7E2FB2068016841F008010160206838
:1011D00006680120FFF77CFC206806602068016833
:1011E00041F004010160206806680120FFF770FCEF
:1011F000206806602046FFF7A6F9206800F58050B9
:10120000816941F400518161206800F58050816955
:1012100041F002018161C4F88450002070BD0000DB
:1012200070B50446D0F88400102801D0012070BDAC
:101230002325C4F884500120A0652068C16B41F4C7
:101240000271C1632068D0F80C11224A1143C0F822
:101250000C112068D0F8101141F40311C0F81011DE
:101260000420E0662046FFF78FFB2068016841F00C
:1012700008010160206806680120FFF729FC20684A
:1012800006602068016841F004010160206806687A
:101290000120FFF71DFC206806602046FFF753F988
:1012A000206800F58050816941F400518161206817
:1012B00000F58050816941F002018161206800F5EC
:1012C0008050C169044A1143C161C4F884500020B0
:1012D00070BD000060000200C1A0010070B50446AE
:1012E000D0F88400232801D0012070BD2320C4F849
:1012F0008400206800F58050C1691F4A1140C16117
:10130000206800F58050816921F4005181612068D6
:1013100000F58050816921F0020181612068016837
:1013200021F004010160206805680120FFF7D0FB6F
:10133000206805602046FFF706F92068016821F063
:1013400008010160206805680120FFF7C1FB2068E3
:101350000560002004EB8001896C4A6842F000427D
:101360004A60401C0428F5D30020A0651020C4F872
:101370008400002070BD00003E5FFEFF10B50446F3
:1013800021B1D4F88400232805D010E054F8880F48
:1013900040F001000AE0486BE06301222046FFF7BD
:1013A00065F930B154F8880F40F002002060012048
:1013B00010BDBFF34F8FA06A401CA062042801D368
:1013C000001FA062206800F580504169490706D5DA
:1013D000042141612068002100F580504160002017
:1013E00010BD00000148806807F058BB20000020B5
:1013F00008F04AB8704700002DE9F041066805463C
:10140000306900F01C044FF6FF7000EAC1204FF471
:10141000F861204301EA8211014398B241F00304CC
:1014200070612868046100F03BF906464FF480378C
:101430000AE000BF00F034F9801BB84202D301205B
:10144000BDE8F08128680469E007F3D1F8E70000FF
:101450002DE9F84FDFF8F8A10022012403254FF011
:101460000F090AF1040BAAF1040E00BF0B6804FA7D
:1014700002F63340B34270D10F7907F00307012F12
:1014800001D0022F16D187684FEA420805FA08FCFE
:1014900027EA0C07D1F80CC00CFA08FC4CEA070C40
:1014A000C0F808C04768B7430E79C6F300169640E7
:1014B0003E4346600E79F643B6070AD0C7684FEA46
:1014C000420C05FA0CF6B7438E6806FA0CF63E435A
:1014D000C6600E7906F00306022E10D1D60800EB86
:1014E0008608D8F8206057074FEAD76C09FA0CF73E
:1014F000BE430F6907FA0CF73743C8F82070066837
:101500004FEA420C05FA0CF7BE430F7907F00307C8
:1015100007FA0CF7374307604E6816F4403F1CD0BB
:101520004C4E376847F480473760366822F003072F
:1015300006F480460096484E07EB060CDCF8086877
:1015400097073F0F09FA07F826EA0806DFF80C812B
:10155000404503D14FF0000841E072E0DFF8008120
:10156000404502D14FF0010839E0DFF8F8804045EE
:1015700002D14FF0020832E0DFF8EC80404502D1A2
:101580004FF003082BE0DFF8E480404502D14FF034
:10159000040824E0DFF8D880404502D14FF0050868
:1015A0001DE0DFF8D080404502D14FF0060816E07C
:1015B000DFF8C480404502D14FF007080FE0DFF8A4
:1015C000BC80404502D14FF0080808E0DFF8B08049
:1015D000404502D14FF0090801E04FF00A0808FA2F
:1015E00007F848EA0608CCF80888DAF80060574699
:1015F000D1F804C09E435FEACC2C00D51E433E6068
:10160000DBF800605F46D1F804C09E435FEA8C2C93
:1016100000D51E433E60DEF800607746D1F804C076
:101620009E435FEA8C3C00D51E433E60084F083F56
:101630003E68D1F804C09E435FEACC3C00D51E430F
:101640003E60521C102AFFF411AFBDE8F88F000075
:10165000083C014044380240003001400000024094
:101660000004024000080240000C0240001002404A
:101670000014024000180240001C024000200240FA
:1016800000240240426921EA02030A4043EA02417F
:10169000816170470AB1816170470904FBE700006E
:1016A00001488068704700001000002002488168EF
:1016B0000278114481607047100000200B4810B57B
:1016C000016841F400710160016841F480610160CA
:1016D000016841F480710160032000F099F80F2047
:1016E00000F006F800F04AF8002010BD003C02406F
:1016F00030B505461C4887B00024016841F001015F
:101700000160006806A900F00100009001A800F047
:1017100063F900F097F915494000B0FBF1F1154865
:10172000134A491E026040F2E732C0E90324C0E9CF
:101730000114846100F0C6FB040012D10D4800F0D2
:101740000DFC04000DD1192000F034F8102D07D243
:1017500000222946192000F03BF80748056000E008
:10176000012407B0204630BD4438024040420F00FB
:101770000000014090040020140000200C4882B0BA
:10178000016841F480410160006800F480400090ED
:101790000748001F016841F0805101600068002285
:1017A00000F0805000900F21901E02B000F010B8A1
:1017B00044380240002809DB00F01F02012191405B
:1017C0004009800000F1E020C0F8001170470000DF
:1017D000F0B40E4B1B680C46C3F30223C3F107059C
:1017E000042D00D90425191D072901D2002300E08A
:1017F000DB1E012606FA05F1491E214099409E4054
:10180000761E16403143F0BC01F0AABC0CED00E09E
:10181000064900F0070208684FF6FF03184040EA47
:101820000220034A10430860704700000CED00E0FE
:101830000000FA052DE9F8431748016841F080518E
:1018400001600068154F00F08050012600903E6452
:10185000FFF726FF05464FF47A78114C05E000BFEC
:10186000FFF71EFF401B40450DD86068C003F7D549
:101870007E64FFF715FF0546464607E0FFF710FFB9
:10188000401BB04202D90320BDE8F88360688003A2
:10189000F4D50020F8E700004038024000000E4276
:1018A000007000402DE9F0470E46050065D0DFF8D6
:1018B0001481D8F80000F7B200F00F00B04207D250
:1018C00088F80070D8F8000000F00F00B04254D142
:1018D00028683D4C810712D5400703D5206840F4A5
:1018E000E05020602878000703D5206840F460406D
:1018F00020602068A96820F0F00008432060287864
:10190000C0072DD0304968680839012812D0022854
:1019100013D0032811D00968890700292DDA21681E
:1019200021F0030101432160FFF7BAFE814641F235
:10193000883A0EE009688903EFE709688901ECE756
:10194000FFF7AEFEA0EB0901514502D90320BDE827
:10195000F0872068696800F00C00B0EB810FEFD1D0
:10196000D8F80010404601F00F01B14207D90770C6
:10197000006800F00F00B04201D00120E7E72878AE
:10198000400705D52068E96820F4E050084320604E
:101990002878000706D52068296920F4604040EACD
:1019A000C100206000F05EF82168084AC1F303110D
:1019B000515CC8400649086006480068FFF798FE79
:1019C0000020C4E7003C024008380240241E010801
:1019D0001C000020140000200F2202600C4A136833
:1019E00003F003034360136803F0F003836013689C
:1019F00003F4E053C36012684FF4E05303EAD202E9
:101A000002610448006800F00F00086070470000A1
:101A100008380240003C024001480068704700005E
:101A20001C0000200448054900680968044AC1F305
:101A30008221515CC84070471C00002008380240D9
:101A4000341E01080448054900680968044AC1F3C6
:101A50004231515CC84070471C00002008380240E9
:101A6000341E0108154810B5006810F00C02144827
:101A700013D04110042A0FD0082A0ED10F4C241F76
:101A80002268236802F03F025B0207D52068C0F39A
:101A90008810A0FB010106E0084610BD2168C1F3D3
:101AA0008811A1FB00010023FEF7FEFB2168C1F3B2
:101AB0000141491C4900B0FBF1F010BD083802405B
:101AC0000024F4002DE9F84F04006ED02078DFF8F0
:101AD0004C93C007A9F104054AD009F1040001683C
:101AE000C1F38101012908D00068C0F381000228F8
:101AF0000AD1D9F80000400206D52868800337D5FE
:101B000060680028E1D033E06068B0F5803F10D015
:101B1000B0F5A02F286810D020F480302860286805
:101B200020F4802028606068A8B1FFF7B9FD064660
:101B30000DE0286840F48030F4E740F4802028600D
:101B4000F7E700BFFFF7ACFD801B642873D8286857
:101B50008003F7D50CE0FFF7A3FD064605E000BFC4
:101B6000FFF79EFD801B6428F0D828688003F7D417
:101B70002078DFF8AC8280074FF0000A3ED5A748F6
:101B8000001D016811F00C0F08D00068C0F381003F
:101B900002280BD1D9F80000400207D4286880073A
:101BA00016D5E068012800D112E033E1E068B8B151
:101BB0000120C8F80000FFF773FD064605E000BFEE
:101BC000FFF76EFD801B0228C0D828688007F7D574
:101BD0002868216920F0F80040EAC10028600DE083
:101BE000C8F800A0FFF75CFD064604E0FFF758FDCB
:101BF000801B02281FD828688007F7D420780007A8
:101C000022D5864F87486169703771B10121016023
:101C1000FFF746FD064604E0FFF742FD801B022861
:101C200009D838688007F7D50EE0C0F800A0FFF7A4
:101C300037FD064605E082E0FFF732FD801B0228F3
:101C40007DD838688007F7D42078400768D5DFF85A
:101C5000CCB100270BF13C0BDBF80000C0000BD42B
:101C6000DBF8001041F08051CBF80010DBF80000E9
:101C7000012700F0805000906B4E3068C00510D4F2
:101C8000306840F480703060FFF70AFD009005E096
:101C9000FFF706FD0099401A022850D83068C005A9
:101CA000F6D55E4EA0686C3601280FD00528306846
:101CB00010D020F001003060306820F00400306067
:101CC000A068B8B1FFF7ECFC00900FE0306840F07E
:101CD0000100F4E740F004003060F7E7FFF7E0FCB4
:101CE0000099411A41F28830814266D830688007F5
:101CF000F4D50EE0FFF7D4FC009007E0FFF7D0FC2E
:101D00000099411A41F28830814256D830688007E4
:101D1000F4D42FB1DBF8001021F08051CBF8001083
:101D2000A069C8B33D49091D0968C1F381010229B1
:101D30004AD00228504607D0C8F8600000E03CE0D6
:101D4000FFF7AEFC04463BE04746C8F86000FFF7EB
:101D5000A7FC064605E000BFFFF7A2FC801B022897
:101D60002BD828688001F7D4D4E907010843A16A79
:101D70002E4A490802EB0141626A41EA8211084396
:101D800094F82C1040EA0161C9F80010012038666F
:101D9000FFF786FC044606E03EE000BFFFF780FC4C
:101DA000001B022809D828688001F7D534E000BF5D
:101DB000FFF776FC001B022802D90320BDE8F88F4C
:101DC00028688001F4D427E00128F7D0D9F8000072
:101DD000E26900F4800191421CD1226A00F03F01C7
:101DE000914217D147F6C071626A0140B1EB821F80
:101DF00010D1A26A4FF0FF3300F4403103EB5202DE
:101E0000B1EB024F06D194F82C1000F07060B0EBEB
:101E1000016F01D00120D1E70020CFE70438024054
:101E200000004742800E4742007000400000FFFF64
:101E30007047704770B590F83C20012A32D00124D9
:101E400080F83C40022280F83D2003685A689D6873
:101E500022F070060A6832435A60134B02689A42B5
:101E600014D0B2F1804F11D0104B9A420ED0104BCB
:101E70009A420BD00F4B9A4208D00F4B9A4205D092
:101E80000E4B9A4202D00E4B9A4204D1496825F07B
:101E900080031943916080F83D40002180F83C1098
:101EA000084670BD022070BD0000014000040040E3
:101EB00000080040000C00400004014000400140C8
:101EC0000018004010B5040003D094F83D0010B194
:101ED00007E0012010BD002084F83C00204600F0FF
:101EE0001FF8022084F83D00211D206800F056FFF5
:101EF000012084F8460084F83E0084F83F0084F80E
:101F0000400084F8410084F8420084F8430084F8DB
:101F1000440084F8450084F83D00002010BD000016
:101F200008B500680B49884212D10B48016841F09E
:101F3000100101600068002200F0100000900521EF
:101F40003620FFF745FCBDE808403620FFF732BCDD
:101F500008BD0000001000404038024090F83D10DD
:101F6000012901D001207047022180F83D1001684D
:101F7000CA6842F00102CA6000681149884214D060
:101F8000B0F1804F11D00F4988420ED00E498842DF
:101F90000BD00E49884208D00D49884205D00D4922
:101FA000884202D00C49884204D1816801F00701BF
:101FB000062903D0016841F001010160002070474B
:101FC000000001400004004000080040000C0040F8
:101FD000000401400040014000180040704770B507
:101FE0000446006801694FF00005C943890715D40C
:101FF000C168C943890711D4E91E01610120207716
:10200000206880698007204602D0FFF7E7FF04E0E0
:1020100000F098F8204600F096F8257720680169CE
:10202000C943490717D4C168C943490713D46FF09E
:1020300004010161022020772068806910F4407F4C
:10204000204602D0FFF7CAFF04E000F07BF82046EC
:1020500000F079F8257720680169C943090716D48B
:10206000C168C943090712D46FF008010161042057
:1020700020772068C0698007204602D0FFF7AEFFB6
:1020800004E000F05FF8204600F05DF82577206856
:102090000169C943C90617D4C168C943C90613D425
:1020A0006FF010010161082020772068C06910F4EA
:1020B000407F204602D0FFF791FF04E000F042F895
:1020C000204600F040F8257720680169C943C90718
:1020D00008D1C168C943C90704D1891E01612046DE
:1020E00000F032F820680169C943090609D4C168C3
:1020F000C943090605D46FF0800101612046FFF74E
:1021000097FE20680169C943490609D4C168C943DB
:10211000490605D46FF040010161204600F02CF81B
:1021200020680169C94389060BD4C168C94389067F
:1021300007D46FF0200101612046BDE87040FFF731
:1021400078BE70BD7047704710B5044600680749F7
:10215000884201D1FFF7AAFA05492068884203D1D5
:1021600004480168491C016010BD000000000140E6
:1021700000100040000000207047704770470000CA
:10218000F8B5016804460868CA684B6910F00F0F7B
:102190004FF0000559D003F0010602F49077374361
:1021A00065D0C10705D0D10503D5216C41F00101EF
:1021B0002164410705D5D90703D0216C41F0020104
:1021C0002164810705D5D90703D0216C41F00401B2
:1021D0002164010707D502F02001314303D0216CAF
:1021E00041F008012164216C00293AD0800604D511
:1021F000900602D5204600F064FE20684069216CFC
:10220000C0F38010090700D460B3204600F032FE0E
:1022100020684069400621D52068143050E8001F2E
:1022200021F0400140E80012002AF5D1A06BA8B1CE
:102230006C490165A06BFEF738FC002811D0A06B3B
:10224000016D01B0BDE8F040084783060FD5930645
:102250000DD52046BDE8F84000F033BE2046FFF71C
:102260008DFFF8BD2046FFF789FF2564F8BD266B7A
:102270002023012E79D1C60677D5D60675D50868F4
:10228000486800904869400640D5A16B08684068DE
:102290000004000CEAD0A28D8242E7D9E085C8692B
:1022A000B0F5807F2DD020680C3050E8001F21F45D
:1022B000807140E80012002AF5D12068143050E8FF
:1022C000001F21F0010140E80012002AF5D120682A
:1022D000143050E8001F21F0400140E80012002AAD
:1022E000F5D184F83E30256320680C3050E8001F9B
:1022F00021F0100140E80012002AF5D1A06BFEF792
:102300008BFBA08DE18D401A81B229E0A08DE18D7B
:10231000401A81B2E08D0028A8D00029A6D02068FC
:102320000C3050E8002F22F4907240E80026002E76
:10233000F5D12068143050E8002F22F0010240E867
:102340000026002EF5D184F83E30256320680C303D
:1023500050E8002F22F0100240E80023002BF5D1B6
:102360002046FFF70AFFF8BDFFE705062BD5150647
:1023700029D594F83D002128F5D1A068B0F5805FFB
:1023800001D12069B0B1206A411C21622168007826
:102390004860E08C401E0004000CE084E3D120681B
:1023A000C16821F08001C1602068C16841F040012E
:1023B000C160D8E7206A0088C0F308004860206A3E
:1023C000801C2062E5E74006CDD55006CBD5CA6813
:1023D000204622F04002CA6084F83D3000F0CFF879
:1023E000C1E70000652E000870B5040004D094F821
:1023F0003D00002510B106E0012070BD84F83C507E
:10240000204600F023F8242084F83D002068C168AD
:1024100021F40051C160204600F0B4FD206801693C
:1024200021F4904101612068416921F02A01416154
:102430002068C16841F40051C1602564202084F8FF
:102440003D0084F83E00002070BD000010B586B04D
:10245000044614216846FDF796FF18492068884213
:1024600029D117480021026842F4802202600068E6
:1024700000F48020059012481038026842F00802EB
:102480000260006800F0080005904FF44070009072
:102490000220CDE901010320039007200490694642
:1024A0000848FEF7D5FF002205212720FFF790F905
:1024B0002720FFF77FF906B010BD0000004800405C
:1024C00040380240000C0240704700002DE9F843FC
:1024D000044690F83D001F4616460D4620284CD174
:1024E000C5B1BEB194F83C00012846D0012084F863
:1024F0003C004FF00008C4F84080212084F83D00E3
:10250000FFF7CEF8A6848146E684A068B0F5805F28
:1025100003D004E00120BDE8F883206928B12E46ED
:102520005FF0000584F83C800EE00026FAE7802189
:10253000204600F0ADFDA0B9AEB116F8010B216840
:102540004860E08C401EE084E08C4B464FF0000277
:1025500000970028EBD14FF04001204600F098FD95
:1025600030B10320D7E735F8020BC0F30800E6E7E7
:10257000202084F83D000020CDE70220CBE7704703
:10258000FEE738B504460020009063696A460121E1
:10259000206898476FF00405002825DB63696A46C8
:1025A00001212068984700281EDB0098400701D4CD
:1025B000012038BD63696A460021206898470028D9
:1025C00012DB0098C10408D44FF4045181431CD09D
:1025D00081041CD4C0051CD415E063696A461F2120
:1025E00020689847002801DA284638BD0098C104C1
:1025F00001D4062038BDC0F38200062805D0022889
:1026000005D0052805D0052038BD022038BD03209F
:1026100038BD042038BD2DE9F843044600200646A5
:10262000054600906068A8BBA06800B180472020E4
:102630006FF00407206063696A46122130469847AC
:10264000002801DA3D4607E0009800F01F00B04284
:1026500002D10025266002E0761C1F2EEBD92068EF
:102660001F2802D96FF0020530E07DBB23694FF4CB
:10267000004200219847002830DB63696A46002148
:1026800020689847002827DBA069804706464FF45A
:10269000FA780CE00EE0A0698047801B404518D80E
:1026A00063696A46002120689847002814DB009877
:1026B0000004F0D4A069804706464FF4FA67A06989
:1026C0008047801BB842FAD9012060602846BDE8E7
:1026D000F8836FF00105F9E73D46F7E76FF0030572
:1026E000F4E788B1CA687AB18A686AB10A695AB1EE
:1026F0000A6882604A68C260CA6842618A68026188
:1027000009698161002070474FF0FF307047000079
:1027100010B596B01C2211496846FDF70DFE002148
:10272000684606F015FA0E4C0C491C2220601C313C
:1027300007A8FDF701FE002107A806F009FA0749DE
:1027400060601C2238310EA8FDF7F6FD00210EA8AE
:1027500006F0FEF9A06016B010BD0000D01D010803
:1027600004000020F0B587B014216846FDF70BFE89
:102770004C480024016841F010010160016801F03B
:1027800010010591016841F004010160016801F048
:1027900004010591016841F020010160016801F028
:1027A00020010591016841F080010160016801F09C
:1027B00080010591016841F001010160016801F0AB
:1027C00001010591016841F002010160016801F019
:1027D00002010591016841F040010160016801F0CA
:1027E00040010591016841F00801016000682E4F29
:1027F00000F00800059000224FF480413846FEF7B3
:1028000049FF012280213846FEF744FF4FF6FF764C
:1028100003250096CDE9015469462448FEF718FEC9
:1028200043F6CD70CDE90005694602942048FEF7D5
:102830000FFE0096CDE9015469461E48FEF708FEDA
:1028400049F67970CDE90005694602941A48FEF709
:10285000FFFD49F67F70CDE90005694602943846D0
:10286000FEF7F6FD4DF2FF70CDE9000569460294D2
:102870001248FEF7EDFD4FF4814000900120CDE9B4
:102880000104694638460394FEF7E2FD4FF6FF4027
:10289000CDE90005694602940948FEF7D9FD07B065
:1028A000F0BD000030380240000402400010024039
:1028B00000080240001402400000024000180240DC
:1028C000000C0240F0B54F4C8BB00A23237002215C
:1028D00061708522A2702120E070251DFF202870E4
:1028E0006870A87000272E1DEF7033707170B27081
:1028F000FE20F070394638460DF0EEFD208841BAD2
:102900000A04A17842EA0123E27844BA240413437A
:1029100044EA01241B06A4B243EA042344BA40BAA1
:10292000000440EA0120E4B243EA04231043A5F185
:10293000100143EA10600860288841BA0A04A978A7
:1029400044BA42EA0123EA782404134344EA012406
:102950001B06A4B243EA042344BA40BA000440EA86
:102960000120E4B243EA04231043A5F10C0143EA39
:1029700010600860308841BA0A04B17844BA42EA6B
:102980000123F2782404134344EA01241B06A4B271
:1029900043EA042344BA40BA000440EA0120E4B206
:1029A00043EA0423104343EA1060A5F10801A5F1AE
:1029B00008030860144815490097CDE901101A1F53
:1029C000111F134805F0A6FB114805F0B5FD10488E
:1029D00090F82D0040070E4802D505F0C1FE01E039
:1029E00005F0B0FD0B490A4805F000FE1C220A491B
:1029F00003A8FDF7A1FC064903A806F0A9F80BB04F
:102A0000F0BD000050000020A9060108D1450008D3
:102A1000A45000202D440008641E01081CB50024A9
:102A20000E4800940C49019401605921C0E9011439
:102A30006321C16080218161FFF744FA08B1FDF78D
:102A4000E9FF0094694605480194FFF7F3F900286F
:102A500001D0FDF7DFFF1CBD001000400404002082
:102A60000C4810B50A4901604FF4E1314160002182
:102A700081600C22C160C0E904128161C161FFF76D
:102A8000B3FC002803D0BDE81040FDF7C3BF10BD64
:102A9000004800404C040020FEE7FEE790B0FFF73E
:102AA00011FF06220121022004F0E2F9040003D5FF
:102AB0000A200EF017F9F4E702208DF8050041F224
:102AC000893003F0E7FAADF806001BA003F07AF8AE
:102AD0000290002003900490102201A9204603F0E8
:102AE0003FFA401C18D0214616A000F015FB1D4EE1
:102AF0004FF480454FF47A7728221BA105A8FDF7F3
:102B00001BFC282205A9204604F0E6F900280ADA71
:102B1000204603F0BBF9C4E71DA000F0FDFA2046F3
:102B200003F0B4F9C4E729463046FEF7ABFD38465A
:102B30000EF0D8F8E0E7000031302E322E3133337A
:102B40002E373700636F6E6E656374207375636331
:102B500065737366756C21636F6E6E5F66643D2589
:102B6000640D0A000004024068656C6C6F20736598
:102B70007276657221546869732069732046343215
:102B8000395A49543620636F6E6E656374210A00AA
:102B9000636F6E6E656374206572726F720A0000F7
:102BA0001C4D4FF4FA660121C820FDF714FC0446C1
:102BB0000EF05AF918A000F0AFFA244800F0ACFA71
:102BC000214623A000F0A8FAC8212046FDF7DBFB30
:102BD00011A000F0A1FA1FA000F09EFA20460EF00E
:102BE000E9F821461AA000F097FA204601F004FE09
:102BF00009A000F091FA0EF075FA014622A000F04B
:102C00008BFA80212846FEF73DFD30460EF06AF82B
:102C1000C9E70000000402402D2D2D2D2D2D2D2D56
:102C20002D2D2D2D2D2D2D2D2D2D2D2D2D2D2D2DD4
:102C30002D2D2D2D2D2D2D2D2D2D2D2D2D2D2D2DC4
:102C40002D2D2D2D2D2D0D0A00000000A420010892
:102C5000257300005461736B5F6E616D65202020E9
:102C600052756E6E696E6720636F756E74202020DA
:102C700020202020202020202020202020207573AC
:102C80006167650D0A000000467265654865617000
:102C900053697A653A25640A00000000802007F035
:102CA00083FA012005F0ACFDFBE7000010B55020D1
:102CB00080F31188BFF34F8FBFF36F8F0EF0F4FED8
:102CC00018B104494FF080500860002080F311884B
:102CD00010BD000004ED00E030B593B0302168462F
:102CE000FDF751FB14210CA8FDF74DFB1F480025F3
:102CF000016841F080510160006800F0805011903F
:102D00001B48016841F4404101600068022400F45E
:102D10004040119001200090000401908001CDE915
:102D2000064008AA0420B42182E813000B906846EC
:102D3000FEF7C8FE08B172B6FEE7FEF77BFD08B1EC
:102D400072B6FEE70CA90F2081E831004FF4A050C5
:102D50000F904FF48050109005210CA8FEF7A2FDB3
:102D6000002801D072B6FEE713B030BD40380240F3
:102D7000007000400248016841F470010160704732
:102D800088ED00E00148FFF72AB900009004002018
:102D90000148FFF724B9000004040020F0B50268E0
:102DA000254C264D264E274F274B4FF0804CA042F6
:102DB00009D0604507D0A84205D0B04203D0B84240
:102DC00001D0984204D122F0700E4A6842EA0E0205
:102DD000A0421BD0604519D0A84217D0B04215D0F0
:102DE000B84213D0984211D0184DA8420ED0184DB9
:102DF000A8420BD0174DA84208D0174DA84205D0C5
:102E0000164DA84202D0164DA84203D122F44075B7
:102E1000CA682A434D6922F080022A4302608A6808
:102E2000C2620A688262A04201D0984201D1096957
:102E3000016301214161F0BD000001400004004038
:102E400000080040000C0040000401400040014028
:102E5000004401400048014000180040001C0040B0
:102E60000020004010B5806B0021C185C184FFF7B0
:102E700085F910BD01680C3151E8002F22F49072E1
:102E800041E80023002BF5D10168143151E8002FEF
:102E900022F0010241E80023002BF5D1016B01294A
:102EA00009D101680C3151E8002F22F0100241E8ED
:102EB0000023002BF5D1202180F83E100021016372
:102EC000704708B590F83E10222901D0022008BDB5
:102ED00082684FF480539A4201D1016921B1816A1D
:102EE0009A421BD04AB10AE00268816A5268C2F372
:102EF00008020A80816A891C08E0026972B10268CE
:102F0000526802F07F020A70816A491C8162C18D99
:102F1000491E0904090CC18503D019E002685268F2
:102F2000F1E70168CA6822F02002CA600168CA6835
:102F300022F48072CA6001684A6922F001024A6183
:102F4000202180F83E10016B012903D0FFF7BCFA65
:102F5000002008BD0021016301680C3151E8002FF9
:102F600022F0100241E80023002BF5D101680A6825
:102F7000D20602D50A6849680091818DFFF7FDF8F5
:102F8000E6E7000070B5044600680169E26821F4D4
:102F90004051114301612169A068E26908436169F8
:102FA000114308432168CA6849F20C639A430243FB
:102FB000CA6020684169A26921F4407111434161EE
:102FC00031492068884202D03049884202D1FEF758
:102FD00039FD01E0FEF726FDE26900231921642591
:102FE0003226B2F5004F626828D0A0FB0101930F92
:102FF0009200FDF759F90146B0FBF5F06FF01802A9
:10300000504301EB800006EB0010B0FBF5F000F040
:10301000F002B1FBF5F002EB0012B1FBF5F06FF03E
:103020001803584301EB800006EB0010B0FBF5F0ED
:1030300000F00F0021681044886070BDA0FB010102
:1030400092185B41FDF730F90146B0FBF5F0020143
:10305000B1FBF5F06FF01803584301EB800006EB6D
:10306000C000B0FBF5F000F0F80002EB4002B1FB4D
:10307000F5F0584301EB800006EBC000B0FBF5F023
:1030800000F00700D6E700000010014000140140E6
:103090002DE9F041984617460E460446069D27E066
:1030A000681C25D02DB1FEF7FBFAA0EB0800A84262
:1030B0001ED920680C3050E8001F21F4D07140E880
:1030C0000012002AF5D12068143050E8001F21F0CA
:1030D000010140E80012002AF5D1202084F83D00CB
:1030E00084F83E00002084F83C000320BDE8F08115
:1030F0002068006836EA000004D00020B842CFD033
:103100000020F3E70120F9E70148FFF739B8000094
:103110004C040020FEE700000FB4054B10B503A9D6
:10312000044A029800F03CF810BC5DF814FB000063
:10313000E1470008980100200FB4084B10B504A91E
:1031400002AA039800F02CF8044602A9002000F01F
:1031500003F9204610BC5DF814FB00005933000849
:103160000907090E002804DB00F1E02080F80014B4
:10317000704700F00F0000F1E02080F8141D704748
:1031800002E008C8121F08C1002AFAD17047704730
:10319000002001E001C1121F002AFBD1704700008E
:1031A0002DE9FF4F8BB09A460F460546002606E0F4
:1031B00025280BD052460D9990476D1C761C287817
:1031C0000028F5D10FB03046BDE8F08F0024A046AE
:1031D0000122604900E0044315F8013F203B02FA58
:1031E00003F00842F7D128782E2817D115F8010FDF
:1031F00044F004042A280ED06FF02F022878A0F1A2
:10320000300109290AD808EB880102EB410100EBE3
:1032100001086D1CF2E757F8048B6D1C28786928AB
:103220003ED006DC0028CDD063280BD0642804D122
:1032300036E0732810D075284BD052460D99904730
:10324000761C85E017F8040B8DF8000000208DF83F
:103250000100E946012003E057F8049B4FF0FF30DE
:1032600061074FF0000401D40AE0641C44450DDA04
:103270008442FADB19F804100029F6D106E0641C38
:103280008442FCDB19F804100029F8D1264404E03C
:1032900019F8010B52460D999047641EF8D257E079
:1032A00001CF4FF00A0B002802DA40422D2102E044
:1032B000210504D52B218DF82410012103E0E1071D
:1032C00005D02021F7E70DF1200908910CE000213D
:1032D000F9E701CF4FF00A0BF9E75946FDF789F8F6
:1032E00001F1300209F8012D0028F6D1ADEB0900FB
:1032F00000F1200B600701D44FF00108D84502DD32
:10330000A8EB0B0000E000208046002406E009A89E
:103310005246005D0D999047641C761C08988442C3
:10332000F5DB04E0302052460D999047761CB8F149
:103330000001A8F10108F5DC05E019F8010B52467F
:103340000D999047761CBBF10001ABF1010BF4DC49
:103350006D1C34E7092801000A68531C0B601070CB
:10336000704700002DE9F041884607460024174DBC
:1033700007F092F905EB0411096841B107F0B4F9BF
:10338000641C042CF4DB4FF0FF30BDE8F08105EB4A
:1033900004152F6007F0A8F900266E60A87B0028AE
:1033A00006D00BA340F20E2216A11EA0FFF7B4FE1A
:1033B0002E8138780121B1EB101F02D15FEA08009D
:1033C00000D001206881AE812046DEE7D850002081
:1033D0002E2E2F4D6964646C6577617265732F546E
:1033E000686972645F50617274792F4C7749502F0D
:1033F0007372632F6170692F736F636B6574732EC3
:1034000063000000736F636B6574735B695D2E739B
:10341000656C6563745F77616974696E67203D3DB3
:1034200020300000417373657274696F6E2022252D
:103430007322206661696C6564206174206C696E1A
:103440006520256420696E2025730A00014900204B
:10345000086070470000002070B505460C468807DC
:1034600006D009A34FF4B67213A11BA0FFF754FEB8
:1034700007F012F9A96809682160A9680C60BDE825
:10348000704007F031B900002E2E2F4D6964646C36
:103490006577617265732F54686972645F506172F9
:1034A00074792F4C7749502F7372632F636F726555
:1034B0002F6D656D702E63006D656D705F66726552
:1034C000653A206D656D2070726F7065726C792041
:1034D000616C69676E656400417373657274696FCE
:1034E0006E2022257322206661696C6564206174F8
:1034F000206C696E6520256420696E2025730A00A2
:1035000070B5044607F0C8F80546A0680468002CAA
:103510000FD021680160A00706D008A34FF48C7279
:1035200012A11BA0FFF7F8FD284607F0DDF82046A2
:1035300070BD284607F0D8F8002070BD2E2E2F4D04
:103540006964646C6577617265732F54686972642D
:103550005F50617274792F4C7749502F7372632FCB
:10356000636F72652F6D656D702E63006D656D7094
:103570005F6D616C6C6F633A206D656D7020707269
:103580006F7065726C7920616C69676E65640000AC
:10359000417373657274696F6E20222573222066F1
:1035A00061696C6564206174206C696E65202564B6
:1035B00020696E2025730A002DE9F041040006D031
:1035C000184E306884420AD10020BDE8F0815020B6
:1035D00080F31188BFF34F8FBFF36F8FFEE70DF0BD
:1035E000B3FA6569F76B366C0DF0CEFABD4201D0C7
:1035F000B54201D10220E8E70B48854208D1A06A14
:103600000028F7D194F85C000128F3D00320DCE710
:1036100005481438854202D00DB10120D5E70420B9
:10362000D3E7000024010020A88900202DE9F047FD
:103630000F46040006D13FA34FF4DC724AA14EA00E
:10364000FFF76AFD07F028F8002666602772217FE1
:1036500041F0010121776578667007F045F8636AEB
:103660007BB10022042120469847636A4BB10022B7
:10367000114620469847636A1BB10022022120466A
:103680009847384603F014FB804604F11000814649
:1036900007F08BF818B14146484607F07CF804F172
:1036A0001400814607F081F818B14146484607F0FA
:1036B00072F8012D0FD0042D0DD0032D0BD0206AF0
:1036C000002834D0BDE8F0471AA340F2F71234A125
:1036D00029A0FFF721BD217FC1F3800001F0FB018C
:1036E0002177002823D1206A30B912A34FF4F37256
:1036F00032A121A0FFF710FD206A042D08D0077128
:10370000206A05680C35284607F08CF810B108E0EF
:103710000671F5E707A340F2EF122FA116A0FFF7FD
:10372000FBFC28462662BDE8F04707F078B8BDE804
:10373000F08700002E2E2F4D6964646C65776172EE
:1037400065732F54686972645F50617274792F4C8D
:103750007749502F7372632F6170692F6170695FB1
:103760006D73672E63000000636F6E6E20213D2035
:103770004E554C4C00000000417373657274696FC4
:103780006E2022257322206661696C656420617455
:10379000206C696E6520256420696E2025730A00FF
:1037A000636F6E6E2D3E63757272656E745F6D73BE
:1037B00067203D3D204E554C4C000000636F6E6EFF
:1037C0002D3E63757272656E745F6D736720213D67
:1037D000204E554C4C000000696E61766C69642087
:1037E0006F705F636F6D706C657465645F73656D3A
:1037F00000000000002802DC4142112901DB052005
:1038000070470249A1EB800000687047901E0108D4
:1038100070B5094D0646002404EB440005EBC000DA
:10382000017D29B18068B04202D1204600F036F90E
:10383000641C0A2CF0DB70BD9C8700202DE9F74F3B
:1038400084B04FF00A0B00240646DA465F46D9469C
:1038500002940194CDF80040514904EB440001EB7F
:10386000C008039098F814500A2F1DD0002D2AD0BC
:10387000012D08D0022D06D24AA340F2231257A1EF
:1038800066A0FFF749FC9EB13168D8F80400814278
:103890000ED1069820B1D8F808100698814207D1B9
:1038A000204607B0BDE8F08F002DE1D127460AE0A1
:1038B000012D16D0022D06D3B8F8120000998842C7
:1038C00001D3A2460090641C24B20A2CC4DB0598E4
:1038D00081074FF0FF30E4D40A2F16D018DA3C46A7
:1038E0003EE02F49039851F830000028B8F8120044
:1038F00005D002998842E6D3A1460290E3E70199F8
:103900008842E0D3A3460190DDE70599C907C8D0F6
:103910005146BAF10A0F0EDA0C46214801EB440178
:1039200050F8310080B11FA340F26D1245A13BA0B9
:10393000FFF7F2FB08E05946BBF10A0F03DB4946EB
:10394000B9F10A0FADDA0C460A2C06DB15A340F2DA
:103950007F1242A131A0FFF7DFFB204600F09EF866
:103960000A2C06DB0FA340F283123CA12BA0FFF729
:10397000D3FB0B4804EB440100EBC105287D30B1BB
:1039800008A34FF4C2723AA124A0FFF7C5FB0EB101
:1039900030686860002068820698A86080E70000B0
:1039A0009C8700202E2E2F4D6964646C65776172B0
:1039B00065732F54686972645F50617274792F4C1B
:1039C0007749502F7372632F636F72652F6970761A
:1039D000342F6574686172702E63000073746174B3
:1039E00065203D3D204554484152505F5354415459
:1039F000455F50454E44494E47207C7C207374619E
:103A00007465203E3D204554484152505F53544117
:103A100054455F535441424C450000004173736567
:103A20007274696F6E2022257322206661696C654D
:103A300064206174206C696E6520256420696E20A5
:103A400025730A006172705F7461626C655B695D09
:103A50002E71203D3D204E554C4C000069203C20ED
:103A60004152505F5441424C455F53495A45000012
:103A70006172705F7461626C655B695D2E73746105
:103A80007465203D3D204554484152505F53544198
:103A900054455F454D5054590000000070B5074C27
:103AA00000EB4005002654F8350018B105F0ECFC99
:103AB00044F8356004EBC500067570BD9C87002096
:103AC0002DE9F04385B00D00074609D07C684FF41E
:103AD00080782088404539D12079062836D109E000
:103AE0001CA340F28A2229A12CA0FFF715FB05B0E8
:103AF000BDE8F0836079042828D16088082825D1A2
:103B0000D4F80E000490A169686820B1814202D106
:103B10000126334601E00026022304F10802914603
:103B200004A9284600F0A2FBE08840450ED16EB102
:103B3000022204ABCDE90232291DCDE9001905F1BD
:103B4000260319464A46284600F090FA384605F002
:103B50009BFCCCE72E2E2F4D6964646C65776172F7
:103B600065732F54686972645F50617274792F4C69
:103B70007749502F7372632F636F72652F69707668
:103B8000342F6574686172702E6300006E6574690D
:103B90006620213D204E554C4C000000417373655A
:103BA0007274696F6E2022257322206661696C65CC
:103BB00064206174206C696E6520256420696E2024
:103BC00025730A00FEB515460E46040006D143A330
:103BD00040F21E324FA153A0FFF79EFA36B93FA321
:103BE00040F21F3259A14FA0FFF796FA35B93BA317
:103BF0004FF4487258A14BA0FFF78EFA214628686F
:103C000000F0DCFF08B1584B3FE02868C0F3031117
:103C10000E2925D0A168636800EA01020B409A4290
:103C200008D080B2A0F57E41A93903D0E068B0B3D6
:103C300004F10C054D4B4E481A7802EB420100EBA3
:103C4000C1010F7D022F2ED38F68A7422BD12F6881
:103C500049688F4227D13146204600F08BF8FEBDDF
:103C600001208DF8040000208DF805005E208DF8FD
:103C70000600687801AB00F07F008DF80700A87897
:103C80008DF80800E8788DF809004FF40060009086
:103C900004F126023146204600F01EFCFEBDFFE77F
:103CA0006FF00300FAE7002202EB420100EBC101D2
:103CB0000F7D022F08D38F68A74205D12F6849686E
:103CC0008F4201D11A70C6E7521CD2B20A2AEBD336
:103CD00032462946204600F0D5F8DFE72E2E2F4D3C
:103CE0006964646C6577617265732F546869726486
:103CF0005F50617274792F4C7749502F7372632F24
:103D0000636F72652F697076342F657468617270A5
:103D10002E6300006E6574696620213D204E554C6F
:103D20004C000000417373657274696F6E20222528
:103D30007322206661696C6564206174206C696E11
:103D40006520256420696E2025730A007120213DBD
:103D5000204E554C4C000000697061646472202153
:103D60003D204E554C4C0000801E010810010020E3
:103D70009C8700202DE9F8430646154688461C48D6
:103D800002EB450100EBC104207D022806D219A3F5
:103D900040F2EE2225A131A0FFF7BEF9144A05EB4F
:103DA0004501207D02EBC1050C35022813D1608A44
:103DB0000327B0F58E7F04D9211D304600F010FA9C
:103DC00007E0B0F5877F06D32A46211D304600F074
:103DD0000DFA00B927754FF4006000902B4606F1EC
:103DE00026024146304600F077FBBDE8F88300002C
:103DF0009C8700202E2E2F4D6964646C657761725C
:103E000065732F54686972645F50617274792F4CC6
:103E10007749502F7372632F636F72652F697076C5
:103E2000342F6574686172702E6300006172705F78
:103E30007461626C655B6172705F6964785D2E733A
:103E400074617465203E3D204554484152505F5393
:103E5000544154455F535441424C4500417373658E
:103E60007274696F6E2022257322206661696C6509
:103E700064206174206C696E6520256420696E2061
:103E800025730A002DE9FC5F8246263001900E461C
:103E9000086814464FF0FF374FF0000B514600F012
:103EA0008DFE80B93068C0F303110E290BD056B1D6
:103EB00048B1524601213046FFF7C0FC050005D548
:103EC00040B2BDE8FC9F6FF00F00FAE77F2D06D3EC
:103ED00037A340F2C13244A147A0FFF71DF905F016
:103EE000FF094F4909EB490801EBC805287D002867
:103EF0000ED0012808D0022806D22DA340F2CD32E0
:103F000048A13DA0FFF708F9BBF1000F06D104E07E
:103F100001202875C5F808A000E034B931465046A4
:103F200000F05EF90746002CCBD0287D3C4E0228DD
:103F30000ED346494FF4006005F10C0381F8009060
:103F4000009021465046019A00F0C6FA07462DE03F
:103F500001282BD1254640F2F1376889298988420A
:103F600007D1286828B112A33A4639A122A0FFF749
:103F7000D3F8287B400607D522464FF420710E2047
:103F800005F0B8F8044605E02D68002DE5D120467F
:103F900005F00EFC44B156F8380008B105F074FA8B
:103FA00046F83840002701E04FF0FF37384688E7F1
:103FB0002E2E2F4D6964646C6577617265732F5482
:103FC000686972645F50617274792F4C7749502F21
:103FD0007372632F636F72652F697076342F657407
:103FE000686172702E63000074797065206F766569
:103FF00072666C6F77000000417373657274696F4D
:104000006E2022257322206661696C6564206174CC
:10401000206C696E6520256420696E2025730A0076
:104020009C8700206172705F7461626C655B695D82
:104030002E7374617465203D3D2050454E44494EB9
:1040400047206F7220535441424C4500100100201C
:104050006E6F207061636B65742071756575657333
:1040600020616C6C6F776564210000002DE9FF4FC3
:1040700081B09846DDE90FA9DDF838B006004FF0B1
:10408000000706D12CA340F2574239A13CA0FFF70C
:1040900043F84FF420721C210E2004F0E7FD0500C8
:1040A00046D068891C2806D223A340F262423EA172
:1040B00033A0FFF731F86C68119801F0EBFFE08056
:1040C00096F82C00062806D01BA340F2694243490B
:1040D0002BA0FFF721F8D8F80010A160B8F8040071
:1040E000A081DAF80010C4F81210BAF80400E082D7
:1040F000DBF80000C4F80E00D9F80000A0614FF40E
:10410000807020800820608006202071042060716B
:1041100040F60600DDE9022300902946304600F013
:10412000DBF9284605F0B0F9384605B0BDE8F08F58
:104130004FF0FF30F9E700002E2E2F4D6964646CBC
:104140006577617265732F54686972645F5061723C
:1041500074792F4C7749502F7372632F636F726598
:104160002F697076342F6574686172702E63000059
:104170006E6574696620213D204E554C4C00000050
:10418000417373657274696F6E20222573222066F5
:1041900061696C6564206174206C696E65202564BA
:1041A00020696E2025730A00636865636B2074685C
:1041B0006174206669727374207062756620636131
:1041C0006E20686F6C6420737472756374206574FC
:1041D000686172705F68647200000000E421010889
:1041E000014A00F003B80000801E01087FB5064DAB
:1041F000031D0124CDE90035CDE90214223319460F
:10420000FFF734FF04B070BD861E010870B5164D6F
:10421000002400BF04EB440005EBC002117DF1B1A6
:10422000508A401C80B25082B0F5967F0AD2012994
:1042300006D003290AD004290AD001290BD00EE0A8
:10424000052808D32046FFF729FC08E0042000E0F9
:104250000220107503E0111D9068FFF7C1FF641C78
:104260000A2CD7DB70BD00009C870020F8B50446FF
:1042700090F82C001F4616460D46062806D020A3AF
:1042800040F2A9122CA135A0FEF746FF9DB1286887
:1042900088B1214600F092FC68B92878C0F3031079
:1042A0000E2808D0224639462846FFF7C7FA0028CC
:1042B00004DA40B2F8BD6FF00F00F8BD00EB40012A
:1042C0003048022300EBC102137594603368D36059
:1042D000B38813820023538250F8315075B140F8EF
:1042E00031304FF400600090334604F12602294635
:1042F000204600F0F1F8284605F0C6F80020F8BD89
:104300002E2E2F4D6964646C6577617265732F542E
:10431000686972645F50617274792F4C7749502FCD
:104320007372632F636F72652F697076342F6574B3
:10433000686172702E6300006E657469662D3E6858
:1043400077616464725F6C656E203D3D2045544822
:104350005F4857414444525F4C454E00417373657A
:104360007274696F6E2022257322206661696C6504
:1043700064206174206C696E6520256420696E205C
:1043800025730A009C8700202DE9F04104464089EE
:104390000E270D460E283CD9E07B18B995F8300061
:1043A000401CE073606801788689CA0714D001292F
:1043B00005D006221C49FBF7F8FF48B10CE0417814
:1043C00051B980785E2807D1607B40F0100002E090
:1043D000607B40F008006073082E03D0B6F5C16F13
:1043E00017D10DE095F82D00000712D5394620466B
:1043F00005F02CFA68B92946204600F027FD10E0A8
:1044000095F82D00000704D53946204605F01EFA20
:1044100018B1204605F038F803E029462046FFF79A
:104420004FFB0020BDE8F081801E010870470000AE
:104430009AB0074664216846FBF7A5FF002635467B
:1044400034464FF480484FF400692248FEF799F84B
:1044500097F82D1049070CD501282BDC1D48E838AA
:10446000FCF73CFF384604F06DF8384604F0C2F81B
:1044700020E001281EDD022820D0032820D00428B7
:1044800021D0052821D0AEB112486946E838FCF7A2
:1044900042FB1048CDE905546946E838FCF73BFE7D
:1044A0000C48E838FCF77EFE384604F059F93846E7
:1044B00004F0F6F8642004F0A3F9C6E74C4600E0E7
:1044C0000024454603E04C4600E000240025012678
:1044D000DAE70000845000202DE9F04104461F4631
:1044E00090460E46069801F0D5FD05460E21304651
:1044F00004F058FB18B16FF00100BDE8F08170685E
:10450000858139680160B9888180D8F80020C0F8B9
:104510000620B8F80410418194F82C00062806D033
:1045200006A34FF4997213A11FA0FEF7F5FD3146C3
:104530002046A269BDE8F041104700002E2E2F4D05
:104540006964646C6577617265732F54686972641D
:104550005F50617274792F4C7749502F7372632FBB
:104560006E657469662F65746865726E65742E6316
:10457000000000006E657469662D3E6877616464B2
:10458000725F6C656E206D757374206265203620D5
:10459000666F722065746865726E65745F6F75749E
:1045A0007075742100000000417373657274696F47
:1045B0006E2022257322206661696C656420617417
:1045C000206C696E6520256420696E2025730A00C1
:1045D00010B5040006D10BA340F2DF1210A114A005
:1045E000FEF79AFD732084F82E00742084F82F00C3
:1045F000194860611948A061204601F039FB00208C
:1046000010BD00002E2E2F4C5749502F5461726759
:1046100065742F65746865726E657469662E6300D3
:104620006E6574696620213D204E554C4C0000009B
:10463000417373657274696F6E2022257322206640
:1046400061696C6564206174206C696E6520256405
:1046500020696E2025730A00C53B0008F95D00083B
:1046600008B50F4D04464FF0FF38002741466868F3
:1046700004F03CFA0028F9D10097287818B9694667
:104680000848FCF734FC009E002EEFD0226921463A
:10469000304690470028EFD0304604F0F5FEEBE7B7
:1046A000200000209C4F00202DE9F0410E46040020
:1046B0005ED0A569002D0DDA05F0EEFFA569002D8D
:1046C00006DA0EB96D1EA561BDE8F04106F00CB822
:1046D00006F00AF8284600F0DBF8040048D001276D
:1046E00005F0DAFF80460120052E19D2DFE806F03A
:1046F000030A0E1316002089401C00B220810128F5
:1047000034DC14E02089401E20812FE0618901B152
:10471000002760810BE00020608127E0A08106E097
:1047200014A34FF41F6220A123A0FEF7F5FCA07B89
:10473000E0B1DFB1B4F90800002801DD012700E095
:104740000027608908B1012600E00026A08908B191
:10475000012400E00024404605F0C6FF234632460F
:1047600039462846BDE8F04105F070BE4046ABE74B
:10477000BDE8F0812E2E2F4D6964646C65776172FF
:1047800065732F54686972645F50617274792F4C3D
:104790007749502F7372632F6170692F736F636B4A
:1047A0006574732E63000000756E6B6E6F776E20FC
:1047B0006576656E74000000417373657274696F8D
:1047C0006E2022257322206661696C656420617405
:1047D000206C696E6520256420696E2025730A00AF
:1047E00013B5FF23012269460248FDF76FFE0098CA
:1047F0001CBD00004C04002010B5002821D0114B36
:104800000022001F196803E0814203D80A46496864
:104810000029F9D152B11368841A9C4204D100686E
:1048200018441060104602E0506000E0186039B192
:1048300002680B1A934203D10B681A44026049685C
:10484000416010BD9C0100202DE9F0410E46044658
:1048500005F022FF0021676861602568216005F08E
:1048600043FF380005D016B104F00EFE01E003F05E
:104870003FF8002D04D02846BDE8F04103F034B9DC
:10488000BDE8F0810148006870470000000000208A
:1048900010B50CF083F8002803D102490920086004
:1048A000002010BD1C0100200A46032100F0F4B8CE
:1048B0002DE9FE4F8A4644490446D1F8088098F80D
:1048C00000000007850E142D79D36089042876D363
:1048D00060680078002872D0082870D1486901F11A
:1048E0001407C0F303120E2A69D08946096800F044
:1048F00065F9002863D12089082860D305F10E01ED
:104900000E46204604F04EF9002830D02089411987
:1049100089B2884253D84FF420720E2004F0A6F9D1
:1049200006004CD0718905F10800814216D32A4651
:1049300041467068FBF700FD2946304604F086FFCB
:10494000002806D021A3B6222EA13CA0FEF7E4FB4E
:1049500004E02146304604F01BFC18B1304604F058
:1049600093FD2CE0204604F08FFD34460CE03146E8
:10497000204604F06BFF002806D014A3C72239A1FB
:104980002EA0FEF7C9FB1AE029462046666804F00F
:1049900009F9A0B960683968FF22C160D9F8101020
:1049A00001610021317071800272418101228DE824
:1049B00006040A46FF233946204600F011FB204634
:1049C000BDE8FE4F04F060BD185100202E2E2F4D83
:1049D0006964646C6577617265732F546869726489
:1049E0005F50617274792F4C7749502F7372632F27
:1049F000636F72652F697076342F69636D702E63F3
:104A00000000000069636D705F696E7075743A2014
:104A10006D6F76696E6720722D3E7061796C6F6183
:104A20006420746F2069636D7020686561646572CD
:104A3000206661696C65640A00000000417373655B
:104A40007274696F6E2022257322206661696C651D
:104A500064206174206C696E6520256420696E2075
:104A600025730A0069636D705F696E7075743A2012
:104A7000726573746F72696E67206F726967696EB1
:104A8000616C20702D3E7061796C6F61642066618D
:104A9000696C65640A0000002DE9FF47914688466D
:104AA00006464FF420722421222004F0DFF805008E
:104AB00031D06889242806D218A34FF4B47225A1F6
:104AC0002FA0FEF729FB6C6877681C2284F8008011
:104AD00084F801904FF00008A4F80480A4F8068040
:104AE000686871680830FBF727FCF868039003A832
:104AF00000F086FC60B1A4F802800122CDF80080AD
:104B0000CDE90120FF2303AA0021284600F068FA1E
:104B1000284604F0B9FCBDE8FF8700002E2E2F4D7B
:104B20006964646C6577617265732F546869726437
:104B30005F50617274792F4C7749502F7372632FD5
:104B4000636F72652F697076342F69636D702E63A1
:104B500000000000636865636B2074686174206600
:104B60006972737420706275662063616E20686F6D
:104B70006C642069636D70206D6573736167650097
:104B8000417373657274696F6E20222573222066EB
:104B900061696C6564206174206C696E65202564B0
:104BA00020696E2025730A000A460B21FFF774BFA7
:104BB000EFF30580002800D001207047421C12D07E
:104BC00088B191F82D2092070BD54B68834208D00D
:104BD000896800EA01020B409A4202D10143491C54
:104BE00001D0002070470120704700002DE9F74FE9
:104BF00088B00446099800251426808CAF1F14380D
:104C0000C11700EB5170C0F3CF00039060680690AD
:104C1000017801F00F01052903D038460BB0BDE83B
:104C2000F08F6189142907D25BA34FF43F7269A109
:104C30006FA0FEF771FAF0E7C08801F02BFAC0F31D
:104C40000C0100F4005002910790208914381FFADB
:104C500080F88EE003984FF6FF7101EAC0004146EC
:104C6000404500D9084604904FF4207214210E20CC
:104C700003F0FCFF5FEA000A7ED0BAF80A001428AD
:104C800006D245A34FF4497263A159A0FEF744FA36
:104C90001422DAF804000699FBF74EFBDAF8040058
:104CA0000590049F35E06089811B8DB2B04206D229
:104CB00039A340F22D3260A14DA0FEF72DFAAF428C
:104CC00000D23D461DB3042002F07AFD5FEA0009E0
:104CD00057D060684B463044CDE900054122294653
:104CE000002004F049F95FEA000B50D0204604F0A0
:104CF0005FFD5549C9E904145946504604F058F976
:104D0000781B07043F0C06D000262468CBE72468F4
:104D10000026002FC7D1701986B20998808C1438EC
:104D200040450298C0F30C0001DB079909B140F43B
:104D3000005001F0AFF90599C8800498143080B292
:104D400001F0A8F90599488005980021418109984A
:104D500051460A9A43699847504604F095FB0499D6
:104D6000A8EB01001FFA80F8DDE90201084480B2D7
:104D70000290B8F1000F00E006E07FF46BAF002076
:104D80004CE7504604F080FB4FF0FF3046E74846C2
:104D900000F02CFCF5E700002E2E2F4D6964646CAA
:104DA0006577617265732F54686972645F506172D0
:104DB00074792F4C7749502F7372632F636F72652C
:104DC0002F697076342F6970345F667261672E6365
:104DD000000000006970345F6672616728293A201C
:104DE0007062756620746F6F2073686F7274000054
:104DF000417373657274696F6E2022257322206679
:104E000061696C6564206174206C696E652025643D
:104E100020696E2025730A0074686973206E6565C9
:104E200064732061207062756620696E206F6E6504
:104E30002070696563652100702D3E6C656E203EB3
:104E40003D20706F66660000D95B00082DE9F047D1
:104E5000456807460E4628780421B1EB101F03D0A1
:104E6000384604F011FB75E000074FEA9068688847
:104E700001F010F904463889A04203D9214638468A
:104E800004F0FCFB79894145EAD33889A042E7D395
:104E9000B8F1140FE4D32969DFF81091C1F30310BE
:104EA0000E28C9F81410EA68C9F8102005D0304659
:104EB00000F080F850B1344619E096F82D00C00794
:104EC00002D070680028F6D1002410E099F8140090
:104ED00000247F280BD03648046806E0B44203D093
:104EE000204600F067F810B92468002CF6D131464E
:104EF000D9F81000FFF762FE0028B1D199F8100030
:104F0000C0F303100E28ABD0002CA9D0E88830F0F5
:104F1000C00005D0384600F02FF907001AD07D6890
:104F2000C9F80850C9E90046297838460907890EAA
:104F3000A9F80C10414604F089FC687A012811D0C8
:104F400006280AD04D462146D9F81400FFF736FE50
:104F500068B119E00020BDE8F0873146384606F018
:104F600059FD14E031463846FFF7A2FC0FE0287DDA
:104F7000C0F303100E2807D04146384604F066FB04
:104F800002213846FFF790FC384604F07DFA0021F4
:104F9000C9F80010C9F80410C9F80810A9F80C10D5
:104FA000C9F81010C9F81410D4E7000018510020F7
:104FB000B400002010B590F82D10C9070CD041683E
:104FC00051B1064A52698A4204D001461046FFF7A1
:104FD000F5FD08B1012010BD002010BD18510020C2
:104FE000FEB5DDE90954089E1AB109B10F6807B989
:104FF000211D0096CDE9015400F002F8FEBD00002D
:105000002DE9F84F0546DDE90BA8807BDDF828B0D7
:105010001F4616468946012806D02FA34FF4557225
:105020003AA13DA0FEF778F86FF00104002E35D0CC
:105030001421284603F0B6FD002832D168896C6837
:10504000142806D224A34FF462723DA132A0FEF7C9
:1050500063F8277284F809A0306820614520207029
:1050600084F801B0288901F015F8414F60804FF0B5
:10507000000AA4F806A0388801F00CF8A08038884F
:10508000401C3880B9F1000F05D0D9F80000E0606D
:10509000A4F80AA00CE037480068F8E768891428EB
:1050A00002D22046BDE8F88F68686E46006900901D
:1050B000B8F8240040B12989814205D932464146D9
:1050C0002846FFF793FDEDE7D8F814304046324606
:1050D00029469847E6E700002E2E2F4D6964646C40
:1050E0006577617265732F54686972645F5061728D
:1050F00074792F4C7749502F7372632F636F7265E9
:105100002F697076342F6970342E6300702D3E72D3
:105110006566203D3D203100417373657274696F8F
:105120006E2022257322206661696C65642061749B
:10513000206C696E6520256420696E2025730A0045
:10514000636865636B207468617420666972737448
:1051500020706275662063616E20686F6C642073D6
:1051600074727563742069705F6864720000000077
:1051700012010020002001082DE9F05F45688346F8
:10518000287800F00F0005287DD1E88800F082FF24
:10519000C004070C688800F07DFF29780907890E94
:1051A000814270D8401A1FFA80F8584603F098FFE1
:1051B0006A4C0646208830440A2809D931462846D8
:1051C00000F0AAFC00285ED0208830440A28E8D8E5
:1051D000A14664684FF0000A0CE06069E968884203
:1051E00007D1A0692969884203D1A089A98888428A
:1051F00003D02468002CF0D106E02CB1E88800F040
:1052000049FFC0041BD025E0032002F0D9FA0400B6
:105210000AD13146284600F07FFCB04233DB032040
:1052200002F0CEFA0400CED02021FBF7ACF80F201C
:10523000E077D9F804102160C9F8044004E0E0895F
:1052400000F028FFC00405D01422294604F108000C
:10525000FBF772F8A87940F340156D1C08D007EBF6
:10526000080080B2B84263D34FF6EB7188425FD832
:105270002A465946204600F001FA411C58D0B9F898
:105280000020324400E064E0A9F8002035B107EBCB
:105290000801A183A17F41F00101A177012845D137
:1052A000A08B1422143087B2606804F108014568AD
:1052B00028462E68FBF740F8384600F0EBFE688081
:1052C000A5F806A0A5F80AA0656809E014213046F3
:1052D000776804F0BBFA3146284603F069FE3E6861
:1052E000002EF3D1D9F804104E468C4205D100218E
:1052F00005E00868A04202D001460029F9D1204605
:1053000000F0E0FA284603F0EBFE04463088A042A5
:1053100006D213A340F29B2220A127A0FDF7FCFE9A
:105320003088001B30802846BDE8F09F0020FBE756
:10533000606870B9D9F80400844206D008A340F22E
:10534000AB2227A11CA0FDF7E7FE0021204600F0BC
:10535000B9FA584604F098F8E8E700001401002074
:105360002E2E2F4D6964646C6577617265732F54BE
:10537000686972645F50617274792F4C7749502F5D
:105380007372632F636F72652F697076342F697043
:10539000345F667261672E630000000069705F729F
:1053A000656173735F70627566636F756E74203EBE
:1053B0003D20636C656E0000417373657274696FA4
:1053C0006E2022257322206661696C6564206174F9
:1053D000206C696E6520256420696E2025730A00A3
:1053E0006E6F74206669727374616C74686F756730
:1053F00068206A75737420656E71756575656400E3
:1054000070B50146144813E090F82D20D3070FD053
:1054100053070DD543685BB184680D68234005EAE6
:1054200004069E4216D0920702D4C268954211D05B
:1054300000680028E8D10948006850B190F82D2094
:10544000D30706D0520704D5426812B109787F29E4
:1054500000D1002070BD0000B4000020B800002082
:105460002DE9FF41884606466F460578FAF74EFF5C
:1054700003461A68505D202862D100240A20302D8E
:1054800006D116F8015F782D08D0582D06D00820D7
:10549000515D202904D0102806D016E0102011E01C
:1054A000303D04FB00540DE081EA810C5FEA0C6C96
:1054B0000BD5090701D5612100E04121691A0A31A4
:1054C00041EA041416F8015FE2E72E2D10D01DB159
:1054D0001868405DC00734D06846381A012101EBD6
:1054E000A000052839D2DFE800F02B3E0A13200087
:1054F00003A8874224D210C716F8015FB9E7B4F1B8
:10550000807F1DD20098FF281AD844EA00642AE060
:10551000B4F5803F14D20098FF2811D80199FF29D3
:105520000ED8000640EA014015E0FF2C08D800988C
:10553000FF2805D80199FF2902D80299FF2903D92C
:10554000002004B0BDE8F0810199000640EA014066
:10555000029940EA0120044305E008A3F92216A1BC
:1055600018A0FDF7D9FDB8F1000F04D0204600F0D7
:105570008FFDC8F800000120E3E700002E2E2F4D1C
:105580006964646C6577617265732F5468697264CD
:105590005F50617274792F4C7749502F7372632F6B
:1055A000636F72652F697076342F6970345F616440
:1055B00064722E6300000000756E68616E646C6535
:1055C00064000000417373657274696F6E20222558
:1055D0007322206661696C6564206174206C696E59
:1055E0006520256420696E2025730A0010B504002B
:1055F00006D106A34FF4317213A116A0FDF78CFD5E
:105600002146BDE81040042002F022B82E2E2F4D76
:105610006964646C6577617265732F54686972643C
:105620005F50617274792F4C7749502F7372632FDA
:10563000636F72652F697076342F6970345F66729C
:1056400061672E63000000007020213D204E554C04
:105650004C000000417373657274696F6E202225DF
:105660007322206661696C6564206174206C696EC8
:105670006520256420696E2025730A002DE9F05FFE
:105680004C68064693460F4600254FF00108608897
:1056900000F000FD21784FF0FF3A0907890E8142A2
:1056A00031D8A0EB0109E08800F0F4FCC0047C686C
:1056B000010C0020206001EB090083B2A180E3808F
:1056C0008B4220D3726829E05068B0F804C061456D
:1056D00015D222606DB1B5F806C0614513D380883C
:1056E000834210D82F60A088844506D04FF0000870
:1056F00003E08088834206D877608AB12EE002D02A
:10570000C288914202D25046BDE8F09F25B1EA8896
:10571000624501D04FF0000802680546002AD3D147
:1057200095B1E888A188884206D92AA34FF4DB7294
:1057300037A13FA0FDF7F0FC2F60E888A1888842E0
:105740000CD04FF0000809E0706830B121A34FF48D
:10575000DF7241A136A0FDF7DFFC7760BBF1000FDF
:1057600002D1B07FC007CFD0B8F1000F30D072683F
:10577000002A2DD050688088002829D12168204631
:1057800029B14C68C088A1888842F7D020E0B8F1E0
:10579000000F1DD032B90FA340F2DF123CA124A0AC
:1057A000FDF7BAFC70684068A04206D109A34FF427
:1057B000F07237A11EA0FDF7AFFC206830B105A341
:1057C0004FF4F17236A11AA0FDF7A6FC01209BE769
:1057D000002099E72E2E2F4D6964646C6577617205
:1057E00065732F54686972645F50617274792F4CCD
:1057F0007749502F7372632F636F72652F697076CC
:10580000342F6970345F667261672E630000000098
:10581000636865636B20667261676D656E74732083
:10582000646F6E2774206F7665726C617000000083
:10583000417373657274696F6E202225732220662E
:1058400061696C6564206174206C696E65202564F3
:1058500020696E2025730A006E6F2070726576696C
:105860006F757320667261676D656E742C20746845
:105870006973206D75737420626520746865206695
:105880006972737420667261676D656E74210000C1
:1058900073616E69747920636865636B0000000052
:1058A00076616C69646174655F646174616772617B
:1058B0006D3A6E6578745F70627566213D4E554C29
:1058C0004C00000070B504460C480D464168A142EA
:1058D00002D1216841600AE0002D06D108A340F200
:1058E000451216A11CA0FDF717FC20682860214670
:1058F000BDE87040032001F0ABBE000014010020A1
:105900002E2E2F4D6964646C6577617265732F5418
:10591000686972645F50617274792F4C7749502FB7
:105920007372632F636F72652F697076342F69709D
:10593000345F667261672E630000000073616E69F8
:10594000747920636865636B206C696E6B65642095
:105950006C69737400000000417373657274696F41
:105960006E2022257322206661696C656420617453
:10597000206C696E6520256420696E2025730A00FD
:105980002DE9F047054600240F46A94205D12FA373
:10599000AB223DA13FA0FDF7BFFB002F08D0386828
:1059A000A84205D029A3AD2244A13AA0FDF7B4FB3B
:1059B0006E684FF480387068818800291AD10068B9
:1059C0006860142205F108017068FAF7B5FC01213E
:1059D0003046FFF7E9F8304603F082FB04464045C5
:1059E00005D31AA3BC223AA12AA0FDF795FB3046A5
:1059F00003F04AFD6E6812E07068B14606684846DA
:105A000003F06EFB0444444505D310A3CC2230A11F
:105A100020A0FDF781FBA4B2484603F035FD002E1F
:105A2000EAD139462846FFF74DFF314D2888A0427C
:105A300005D206A3D2222FA116A0FDF76DFB288860
:105A4000001B28802046BDE8F08700002E2E2F4D39
:105A50006964646C6577617265732F5468697264F8
:105A60005F50617274792F4C7749502F7372632F96
:105A7000636F72652F697076342F6970345F667258
:105A800061672E63000000007072657620213D2062
:105A900069707200417373657274696F6E2022259C
:105AA0007322206661696C6564206174206C696E84
:105AB0006520256420696E2025730A007072657662
:105AC0002D3E6E657874203D3D20697072000000A7
:105AD00070627566735F6672656564202B20636C07
